:020000040800F2
:100000000010002075310008493100084D3100080A
:1000100000000000000000000000000000000000E0
:100020000000000000000000000000005131000846
:1000300000000000000000005531000859310008A0
:10004000C53100080000000061310008C53100081A
:10005000C5310008C5310008C5310008C5310008A8
:1000600000000000C5310008C5310008C531000896
:10007000C5310008C5310008C53100080000000086
:10008000C53100080000000000000000C531000874
:1000900000000000C5310008C5310008C531000866
:1000A00000000000C531000800000000C531000854
:1000B0000000000000000000000000000000000040
:1000C00010B5064C2378002B07D1054B002B02D02E
:1000D000044800E000BF0123237010BD0C00002085
:1000E0000000000020320008044B10B5002B03D0A4
:1000F0000349044800E000BF10BDC04600000000F6
:100100001000002020320008002243088B4274D3E4
:1001100003098B425FD3030A8B4244D3030B8B4208
:1001200028D3030C8B420DD3FF22090212BA030C11
:100130008B4202D31212090265D0030B8B4219D3F2
:1001400000E0090AC30B8B4201D3CB03C01A524112
:10015000830B8B4201D38B03C01A5241430B8B425A
:1001600001D34B03C01A5241030B8B4201D30B0343
:10017000C01A5241C30A8B4201D3CB02C01A52416A
:10018000830A8B4201D38B02C01A5241430A8B422D
:1001900001D34B02C01A5241030A8B4201D30B0216
:1001A000C01A5241CDD2C3098B4201D3CB01C01A30
:1001B000524183098B4201D38B01C01A524143093A
:1001C0008B4201D34B01C01A524103098B4201D328
:1001D0000B01C01A5241C3088B4201D3CB00C01A95
:1001E000524183088B4201D38B00C01A524143080D
:1001F0008B4201D34B00C01A5241411A00D2014632
:10020000524110467047FFE701B5002000F006F8A4
:1002100002BDC0460029F7D076E770477047C04658
:100220000023C25C0133002AFBD1581E7047000036
:1002300010B50400FA200E4B80001978FFF764FF18
:100240000C4B01001868FFF75FFF00F073FB0028FC
:100250000CD10130032C00D910BD0238002221003E
:1002600000F02AFB044B00201C60F5E70120F3E7B7
:100270000000002008000020040000201021064A91
:1002800010B5136800200B431360FFF7D1FF02F095
:1002900043FF002010BDC04600200240034A044B2B
:1002A00011681B785B1813607047C0462800002057
:1002B00000000020014B18687047C046280000204D
:1002C00070B50400FFF7F6FF0500631C02D0044B75
:1002D0001B78E418FFF7EEFF401BA042FAD370BD75
:1002E000000000200323026870B5916804000B40F1
:1002F000012B01D0002070BD11680B420ED00523E8
:1003000091680B40012B0DD01022A36B01201343E9
:10031000A363E36B0F3A1343E363ECE7D3681B0477
:10032000E8D5ECE70221936801260B439360032391
:100330001360FFF7BFFF050004E0FFF7BBFF401BA2
:10034000022804D823689B681E42F6D1D2E7102207
:10035000A36B01201343A363E36B1E43E663CAE769
:10036000002370B5026882B00193916803330400E2
:100370000B40012B31D09168204B194223D1012130
:1003800093680B4393601E4B1E491868FFF7BCFE31
:100390000190019B002B05D0019B013B0193019B28
:1003A000002BF9D1FFF786FF0126050004E0FFF7D7
:1003B00081FF401B022817D823681B681E42F6D015
:1003C000002002B070BD1022A36B01201343A36371
:1003D000E36B0F3A1343E363F3E711680B42EFD18A
:1003E000D3681B04ECD4C6E71022A36B012013438F
:1003F000A363E36B1E43E663E3E7C0461700008098
:100400000800002040420F00F8B5041E00D185E02E
:10041000836B002B00D16BE0A36BDB0662D404215D
:100420000D0023689A68154011425BD1A26B4849C0
:100430000A400631FF310A43A263032299680A4049
:10044000012A5BD01821DA688A43A1680A43DA607E
:100450001A696168920092080A431A61DA683D4994
:100460000A40DA60217E627E8903D2031143A26AC8
:10047000A67E013A501E82411003E26877031143C1
:1004800022693943022A00D104252422A25C5200A9
:100490000A43E17E02432A4301294BD0C220E1698D
:1004A000FF30814202D0206A01430A43D968E56ADD
:1004B0001143D960802149058D4226D0691E062945
:1004C00023D9DB6824490B40934229D01222A36B25
:1004D00001209343023A1343A363E36B0F3A1343A0
:1004E000E36304E010220120A36B1343A363F8BD70
:1004F0003422C363835401F09FFD8DE719680A42DB
:10050000ACD1DA681204A9D49CE707215869884362
:1005100058615869294001435961D2E70120E6E753
:1005200000230322E363A36B00209343023A1343A7
:10053000A363DCE7002E03D1802149020A43ADE723
:100540002025A06B2843A063E06B0143E163A5E78E
:10055000FDFEFFFF1902FEFFE7FF3F83036810B5B2
:100560009A680400520721D43422815C01291DD0ED
:1005700001218154427E012A12D1A26B0C49002034
:100580001140802252000A43A26334210022E26318
:1005900062541C321A609A6830390A439A6010BD5E
:1005A000FFF7DEFE0028FAD12368E6E70220F6E72F
:1005B000FEF0FFFF342370B5C25C0400012A20D096
:1005C0000122C2540368033299680A4210D0996824
:1005D0000A4220D1FFF76EFE0426050004E0FFF773
:1005E00069FE401B02281ED823689B681E42F6D174
:1005F0002000FFF777FE002805D034230022E254C4
:1006000070BD0220FCE7A36B0C4A13400432FF329A
:100610001343A363F1E79A689207DBD410219A6829
:100620000A439A60D6E71022A36B01201343A36309
:10063000E36B0F3A1343E363DFE7C046FEFEFFFFC1
:10064000F8B5446905000E00082C04D003680C249A
:10065000DB68DB0741D4FFF72DFE07002A68731C17
:1006600025D113681C42FCD08023A96B9B000B434F
:10067000AB63C023D1681B01194213D1AB7E002BA1
:1006800010D113681B070DD593685B072ED40C217E
:1006900053688B435360AB6B19490B400431FF31F6
:1006A0000B43AB63287E002814D00020F8BD1368EC
:1006B0001C42D9D1002E04D0FFF7FCFDC01BB04274
:1006C000CCD90422AB6B03201343AB630022342349
:1006D000EA54EBE70C231360E8E72022836B134313
:1006E000836300223423C2540120DFE72021AB6B57
:1006F0000B43AB63EB6B1F390B43EB63D2E7C04695
:10070000FEFEFFFF0368186C7047C04670B50023FB
:100710000400342282B00193A35CC06A012B51D043
:100720000123A354226895686D0709D52022012072
:10073000A36B1343A36334230022E25402B070BDC1
:100740002D4D4E68AE4228D00D68966AAB403343BB
:10075000936280235B0598420FD0013806280CD99C
:100760000723886851691940884206D05169994326
:100770005161516903400B4353612B00103B012B26
:1007800001D90020D7E71D4B1968102D1CD08022FD
:10079000D2030A4300201A60CDE70968906A8B40B3
:1007A0001039984390620129EBD84B424B41594292
:1007B000134B124A9C461068890561440140116040
:1007C0000020B8E70220B9E7802212040A431A6029
:1007D0000C4B0D491868FFF797FC83001B185B0052
:1007E0000193019B002BCCD0019B013B0193019B0A
:1007F000002BF9D100209EE70110000008270140DE
:10080000FFFFBFFF0800002040420F00342370B5F7
:10081000C25C0400012A4BD00122C2540368023298
:1008200099680A40012A05D119680A422FD1DA686D
:1008300012042CD4A26B1F490A400631FF310A432F
:10084000A263DE68DA6801318A43DA60802299683F
:1008500012060A439A60FFF72DFD050004E0FFF73A
:1008600029FD401B022818D823689A68002AF6DB65
:1008700003220020D96816400E43DE60A36B934329
:10088000023A1343A36334230022E25470BD2022B2
:10089000A36B01201343A363F5E71222A36B01208E
:1008A0009343023A1343A36300223423E254EDE757
:1008B0000220EBE7FDFEFFFF70B5002814DB154BAF
:1008C00003229C46FF23840810401A00C026C00063
:1008D000890182400B408340A4006444B600A559BE
:1008E00095432B43A35170BD0B4A0F23944603221B
:1008F00003401040FC321500C000890185400A40C9
:100900008240083B9B089B006344DC69AC43224364
:10091000DA61E8E700E100E000ED00E0002805DB37
:100920001F2318401E3B8340014A13607047C04696
:1009300000E100E08022431E5204012093420ED2C7
:10094000C021074A07485360036A09061B021B0AB5
:100950000B4303620023002093600733136070474A
:1009600010E000E000ED00E0F0B54546DE465746F9
:100970004E46E0B50D68002385B0002D00D181E022
:10098000012292466D4AAB469146884654465A46E5
:100990009C40224000925A4622426FD04246526802
:1009A00010251100A9430191022900D171E003260D
:1009B0005D00AE40B44661460768F6438F43390098
:1009C00003271740AF40BC460F0061460F43019913
:1009D00007600139012900D877E0C1680E4041461F
:1009E0008968A9400E4380214905C6600A4245D066
:1009F000494654468969032521434C46A161A169B2
:100A000054460F2621404E4C1D40A446AD00AE403A
:100A1000039103999908890061448C68B443902636
:100A2000F605B0420ED0474EB04200D17DE0464EB2
:100A3000B04200D17DE0454EB04200D171E00526C4
:100A4000AE4034438C604249009C0968E443D503BE
:100A50004ED43F4D21402960696895034FD43C4DE9
:100A600021406960A968D50250D4394D2140A96060
:100A7000E968920251D42140354AD1605A46013387
:100A8000DA4083D105B0F0BCBB46B246A946A046C9
:100A9000F0BD0F27093D1D40AD00AF40D9088900CA
:100AA00041180E6ABE4347463F69AF403E430E625F
:100AB00001685D008C4603216746A9408F43CE4301
:100AC00003211140A94039430160816831408C46BF
:100AD0004146C9686746A940394357468160416825
:100AE000A1430C001109394099402143416074E74A
:100AF000009D2943164D296069689503AFD5009D77
:100B00002943134D6960A968D502AED5009D2943DC
:100B10000F4DA960E9689202ADD5009A0A43110011
:100B2000AAE70326AE4034438CE75646AE40344332
:100B300088E70226AE40344384E7C04600100240F6
:100B4000000001400004004800080048000C004874
:100B500000040140002A01D0816170478162FCE7F6
:100B60000221054A13680B431360044A02311369DA
:100B70000B43136130BF70470070004000ED00E090
:100B8000F0B5CE46474680B5040083B0002800D1BA
:100B9000EEE00368DA0735D50C21C34842680A4005
:100BA000042A00D101E142681140082900D1F8E08F
:100BB0006368012B0FD0002B00D11EE1052B00D163
:100BC000A7E1B94BB9491A680A401A601A68B849CE
:100BD0000A401A6005E08023B34A5B0211680B43A8
:100BE0001360FFF767FB80260500AF4FB60205E0F4
:100BF000FFF760FB401B642800D9FCE03B683342F0
:100C0000F6D023689A0729D50C22A74948680242E2
:100C100000D1A6E048680240082A00D19DE0E368C0
:100C2000A14D002B00D11FE101222B6802271343A5
:100C30002B60FFF73FFB060005E0FFF73BFB801B47
:100C4000022800D9D7E02B681F42F6D0F8212A6885
:100C500023698A43DB0013432B6023681A072DD4D2
:100C60005A0744D5802200208F4B5205D96981460E
:100C7000114208D1D9691143D961DB691A40019247
:100C8000019B0123994680278A4E7F0033683B42AF
:100C900000D194E0A368012B00D1F8E0002B00D133
:100CA000C4E0052B00D140E101217F4B1A6A8A4341
:100CB0001A621A6A03318A431A62ECE0E3697A4DD8
:100CC000002B5BD001226B6A022713436B62FFF794
:100CD000F1FA060005E0FFF7EDFA801B022800D9C3
:100CE00089E06B6A1F42F6D023685A07BAD4DB0644
:100CF00012D56369012B00D13DE1053300D0E9E055
:100D00000421F820684A536B8B435363516BA369EA
:100D10008143DB000B435363236A002B1BD00C225F
:100D2000614E71680A40082A00D108E1022B00D107
:100D30003FE13368604A802513403360FFF7BAFA19
:100D4000AD04040004E0FFF7B5FA001B022852D8F6
:100D500033682B42F7D100200BE04A68D20300D55C
:100D60005DE7514A1268920739D5E268012A36D008
:100D7000012003B0C0BCB946B046F0BD01226B6A89
:100D8000022793436B62FFF795FA060004E0FFF732
:100D900091FA801B02282ED86B6A1F42F7D1236874
:100DA000A3E74268D20300D402E73F4A12689203E5
:100DB00000D427E76268002A00D023E7D8E7336829
:100DC0003B433360FFF776FA050004E0FFF772FA61
:100DD000401B64280FD833683B42F7D05AE7F82508
:100DE000314822690168D200A9430A4302601A0708
:100DF00000D435E762E70320BBE72B4D2B4A2B6875
:100E0000802713402B602B68294ABF0213402B60B8
:100E1000FFF750FA060004E0FFF74CFA801B642845
:100E2000E9D82B683B42F7D12368EBE601221E4E3E
:100E3000224D336A93433362336A033293433362FE
:100E4000FFF738FA02230700984604E0FFF732FA6A
:100E5000C01BA842CFD84246336A1A42F6D14B464D
:100E6000012B4FD0236842E701222B6802279343CE
:100E70002B60FFF71FFA060004E0FFF71BFA801B48
:100E80000228B8D82B681F42F7D12368E6E6064946
:100E90000A6A13430B62FFF70DFA034B06009846EC
:100EA0000227064D11E0C04600100240FFFFFEFF82
:100EB000FFFFFBFF00700040FFFFFFFE88130000F4
:100EC000FFF7F8F9801BA84295D843461B6A1F42DA
:100ED000F6D0C4E70422534D02276B6B13436B63B8
:100EE0006B6B033A93436B63FFF7E4F9060005E08D
:100EF000FFF7E0F9801B022800D97CE76B6B1F42EB
:100F0000F6D109E7474A4849D3690B40D3612368C2
:100F1000EDE68022434BD20219680A431A60802210
:100F2000196852020A431A605BE604213D4B1A6AB3
:100F30000A431A621A6A03390A431A62ABE7012BA1
:100F400000D115E780237268656A5B020120F16AAF
:100F50001340AB4200D00CE70F230B40E16A8B42F9
:100F600000D006E7F02080030240A06A101A421E5B
:100F70009041C0B2FDE604212A4E0227726B0A435B
:100F80007263726B13437363FFF794F9050005E016
:100F9000FFF790F9401B022800D92CE7736B1F4222
:100FA000F6D0F821726BA3698A43DB0013437363A5
:100FB000B2E633681D4A802713403360FFF77AF9A1
:100FC000BF04050005E0FFF775F9401B022800D9B2
:100FD00011E733683B42F6D10F22F36A8025934331
:100FE000E26AAD041343F362616AA36A72680B4359
:100FF0000F490A4013437360802332685B04134334
:101000003360FFF757F9074E040005E0FFF752F988
:10101000001B022800D9EEE633682B42F6D00020F0
:10102000A7E6C04600100240FFFFFFEFFFFFFFFEF4
:10103000FFFFC2FFF0B5CE46474680B504000D0065
:1010400089B000280DD0012350490A681A40AA42ED
:101050000DD20A689A432A430A600A681340AB42D9
:1010600005D0012009B0C0BCB946B046F0BD236828
:101070009A070ED55A0705D5E0224549D20048689F
:1010800002434A60F02042494A688243A068024312
:101090004A60DB0722D53E4B62681B68012A67D095
:1010A000022A62D09B07DCD50321394E73688B433B
:1010B00013437360FFF7FEF80C239846354B070087
:1010C000994604E0FFF7F6F8C01B484553D843465D
:1010D00072681A4063689B009A42F3D101212B4A3F
:1010E00013680B40AB4205D913688B431360136838
:1010F0001942B6D123685B0706D5254A26495368AD
:101100000B40E1680B43536069460A00234B31CB27
:1011100031C21B68136004AA1000214B70CB70C051
:101120001B681B4C03600C2360680340082B0ED027
:101130001C48174B1C4A5B681B061B0FD35CD8402E
:101140001A4B18600020FFF773F800208AE7073376
:10115000850C1D404D5DE16A0B40D15CC3030CD58D
:101160001048FEF7D1FF6843E3E79B019CD478E782
:101170009B0399D475E7032074E76B015B1B98010F
:10118000C01AC00040190002D3E7C0460020024048
:101190000010024088130000FFF8FFFF38320008FB
:1011A0004C32000800127A0060320008080000206B
:1011B000F0B5CE46474680B50368040083B0DA0335
:1011C00032D5802200203F4B5205D969804611421A
:1011D00042D080263C4D76002B6833424BD0394DAF
:1011E000C0222B6A920018001040134262D061683E
:1011F0000A4082420ED08022286A2E6A520232436E
:101200002A622A6A314B324E034032402A622B62F4
:10121000C30740D42B4A2D48136A03400B43136283
:101220004346012B48D02368DA0706D50320254919
:101230000A6B8243A06802430A6300209B0606D51E
:101240001021204A136B8B43E1680B43136303B0F7
:10125000C0BCB946B046F0BDD96980261143D961FA
:10126000DB69194D1A400192019B012398462B68B6
:1012700076003342B3D12B6833432B60FFF71AF863
:1012800007002B683342AAD1FFF714F8C01B64286B
:10129000F7D90320DBE7FFF70DF80E4B0600022716
:1012A000994604E0FFF706F8801B4845F1D82B6A01
:1012B0001F42F7D06168ADE7D36907490B40D3619E
:1012C0002368B1E70010024000700040FFFCFFFF00
:1012D000FFFFFEFF88130000FFFFFFEFF8B5041EBD
:1012E0004CD0437FDAB2002B5FD00223CA2263774F
:1012F00023685A62773A5A62DA68520627D59A68A2
:101300002C4920690A409A606268996802436069C2
:1013100002430A439A60E2681A61A26819691204DA
:101320000A4380211A61DA688A43DA609A68920671
:1013300026D51A6C204900200A401A641A6CA1694B
:101340000A431A64FF225A620123637717E00122DD
:101350005242DA60FEF7AEFFFA2605004027B600DB
:101360002368DA681742CAD1FEF7A4FF401BB042D7
:10137000F6D9FF2223685A62042363770120F8BD5F
:10138000DA6820318A43DA60FEF794FFFA26050016
:101390002027B60004E0FEF78DFF401BB042E8D8DE
:1013A0002368DA681742F6D0C3E7027701F03EFE01
:1013B0009BE7C046BFFF8FFFFFFFFBFFF8B54E4620
:1013C0004546DE465746E0B5037F05000E00012B7B
:1013D00000D1C2E001230377013307684377002A75
:1013E00054D040210B00BA681340114200D1A7E04D
:1013F000F3781B0434787278B17824041202144311
:101400000C431C43CA237B62773B7B62FB68A0468C
:101410005B0600D473E04446514B524A1C403C608A
:10142000BB6831691340BB60F368BA680B43134370
:101430008022BB60FB689343FB60BB689B0618D4AB
:10144000FB6820329343FB60FEF734FFFA239B00D6
:1014500006002024994605E0FEF72CFF801B484536
:1014600000D971E022002F68FB681A4090461C42A8
:10147000F2D0FF237B62FE3B6B77002300202B77AB
:10148000F0BCBB46B246A946A046F8BD40210800C4
:10149000BB681840194255D0F0780004317809290A
:1014A00008D900230A39C9B201330929FAD81B0126
:1014B0001943C9B273780904092B08D900240A3BDF
:1014C000DBB20134092BFAD824012343DBB2B47810
:1014D0001B02092C07D90A3CE4B20132092CFAD8C4
:1014E00012011443E4B201430B4323439846CA2339
:1014F0007B62773B7B62FB685B0600D58BE7012351
:101500005B42FB60FEF7D6FEFA239B008146402437
:101510009B4622002F68FB681A4092461C4200D06E
:1015200079E7FEF7C7FE4B46C01A5845F1D9FF22AE
:101530002B6801205A6204236B7753462B779FE771
:10154000F37057E7F070A9E7FF222B6801205A6279
:1015500004236B7743462B7792E7022090E7C0463F
:101560007F7F7F00FFFFFBFFF8B5CE46474680B583
:10157000037F0500012B00D1A8E00123037701338D
:101580004377002A3DD0CA23C8784C78000424024F
:1015900020438C7820430C78296864034B62773BA6
:1015A0004B62CB6804435B0664D5802249482040E7
:1015B0004860CB689343CB608B689B0616D4CB689E
:1015C00020329343CB60FEF775FEFA239B000600A2
:1015D0002024984604E0FEF76DFE801B40456DD840
:1015E00027002968CB681F401C42F4D0FF234B62C0
:1015F000FE3B6B77002300202B77C0BCB946B0467A
:10160000F8BD10204B78184254D083430A33CC786D
:10161000DBB24B70092C5BD900200A3CE4B20130EC
:10162000092CFAD800010443E4B22404092B08D998
:1016300000200A3BDBB20130092BFAD8000103433A
:10164000DBB288781B02092807D90A38C0B20132F8
:101650000928FAD812011043C0B20A782968520347
:1016600014431C43CA234B62773B4B62CB68044351
:101670005B069AD401235B42CB60FEF71BFEFA2384
:101680009B0007004026994632002968CB681A4023
:1016900090461E4200D088E7FEF70CFEC01B48456E
:1016A000F2D9FF222B6801205A6204236B7743464C
:1016B0002B77A2E7CC78092CAED8B6E7FF222B68AF
:1016C00001205A6204232F776B7796E7022094E774
:1016D0002404ADE73FFFFF00F8B54546DE46574618
:1016E0004E46E0B5037F0500012B00D1BFE001238A
:1016F0000468037701334377A3684020002A62D04F
:1017000002001A40184200D1ADE0CA7812044B69B9
:10171000CE691E438B781E430B781B041E434B7807
:101720001B021E432023CB5C1B061E431643B04600
:101730004B68504A9A468B699B46CA236362773B43
:101740006362A3681340A360FF23E2681A404A4B18
:101750001343E360FEF7AEFDFA239B00070001246C
:10176000994605E0FEF7A6FDC01B484500D972E08A
:1017700026002A68D3681E401C42F3D043465946CF
:10178000D36153460B435364802391685B000B4342
:101790009360802391685B010B4380219360374BFA
:1017A0008902186808431860986801439960FF230C
:1017B0005362002300206C772B77F0BCBB46B24607
:1017C000A946A046F8BD06001E40B44618424CD0BB
:1017D000CF783B049C460878CF69092808D90023B4
:1017E0000A38C0B201330928FAD81B011843C0B225
:1017F000030448789846092808D900230A38C0B25B
:1018000001330928FAD81B011843C0B28E780002B0
:10181000092E08D900230A3EF6B20133092EFAD860
:101820001B011E43F6B22023CB5C092B07D90A3BD0
:10183000DBB20132092BFAD812011343DBB24A6939
:101840001B06174362461743424617433843064375
:101850001E43B0466CE7FF222B6803205A62032325
:101860002E776B77A9E7CA7051E7CE70B3E70220F5
:10187000A3E7C046FFFEFFFF7FFEFFFF000401401D
:101880007047C046036810B59A680400D20402D5B8
:10189000DB68DB0506D48022074B92025A610123E4
:1018A000637710BDFFF7ECFFFF232168CA681A4079
:1018B000024B1343CB60EEE7000401407FFEFFFFC5
:1018C000F8B5C02704000D0016007F0123686A1CCC
:1018D00014D1C022520199681142FCD180219A682A
:1018E0001142FCD1C0229868D2001100104203D0EE
:1018F0001A7B9A680A42FBD10020F8BD9A683A42E6
:1019000026D0FEF7D7FC801B8542DFD82368E02174
:101910005A688A435A60822261685200914230D0EC
:101920008021A26A89018A4206D119681C480140B7
:10193000196019680A431A605D230122E2540022EB
:10194000013BE254236E2032134303202366D4E785
:10195000802705E0FEF7AEFC2368801B8542D6D9C0
:101960009A681742F6D1C027FF0006E01B7BFEF7FE
:10197000A1FC2368801B8542C9D99A683A42F5D1F7
:10198000BAE78021A26809028A4203D08021C900F7
:101990008A42C5D140211A688A431A60C0E7C0460E
:1019A000FFDFFFFFF8B5041E60D0002383625D33C4
:1019B000C35CDAB2002B54D05D2302224021E254F2
:1019C0002268E66813688B431360E023DB009E42C5
:1019D0002FD9F0231B019E424AD1236BA76A002B0B
:1019E00032D00021A5686368A0692B4325692B4389
:1019F00065692B43E5692B43256A2B438025AD00A0
:101A000005402B433B431360636A656B33432B43B1
:101A10000425000C284003430B435360D369184945
:101A200000200B40D3610023012223665D33E25482
:101A3000F8BD9E420CD00023276BA362002F0BD071
:101A4000802100274901CDE7022300212363C9E754
:101A5000236BA76A002B01D1012323638021490155
:101A6000C0E75C33C25401F021FBA5E70120DFE7AA
:101A70000023276BA362002FE6D00027B1E7C04602
:101A8000FFF7FFFFF0B5C6461D005C2300B590468A
:101A9000C25C04000F0082B0012A00D16EE0012276
:101AA000C254FEF707FC5D22A35C0600D8B2012BEE
:101AB0000AD002205D230122E2540022013BE254BD
:101AC00002B080BCB846F0BD002FF3D04346002BD7
:101AD000F0D00323A354002342462366A287E28763
:101AE00044222364A763A3520232A3522365E36412
:101AF0008023A2681B029A4242D023681A00402128
:101B00001868014202D1186801431960E021E068B9
:101B1000C900884263D96168002950D04146012933
:101B20004DD0E18F002911D00227691C3DD19A6860
:101B300017424DD0A26B11880232D960A263E28FA6
:101B4000013A92B2E287E28F002AF0D132002900F6
:101B50002000FFF7B5FE002801D020232366A368EC
:101B6000002B06D101932368DA6801929B680193E8
:101B7000019B206E431E9841C0B29BE702209FE765
:101B800080212368C90118681A0001431960B6E76B
:101B9000A36B19880233D160A363E38F013B9BB22F
:101BA000E387E38F002BD1D0226893681F42EFD1E7
:101BB000FEF780FB801BA842F3D303207AE7398825
:101BC0000237D960E18FA763013989B2E187A8E7BD
:101BD000FEF770FBE38F002BB8D02368A7E762689D
:101BE000002A3AD04246012A37D0E38F002BADD0ED
:101BF00002276B1C0FD025E0E28F012A39D9A26B96
:101C000011880232D960E38FA263023B9BB2E38763
:101C1000E38F002B9AD023689A681742ECD1FEF725
:101C200049FBF5E7E28F012A2ED9A26B1188023217
:101C3000D960E38FA263023B9BB2E387E38F002B63
:101C400000D183E723689A681742EBD1FEF732FB95
:101C5000801BA842F2D303202CE7E28F012A1ED971
:101C60003A880237DA60E38FA763023B9BB2E387CF
:101C7000BBE7A26B12781A73A36B0133A363E38FE4
:101C8000013B9BB2E387C3E7A26B12781A73A36B85
:101C90000133A363E38F013B9BB2E387CEE73A783E
:101CA0001A73A36B0133A363E38F013B9BB2E387FA
:101CB0009BE7C046F0B5C6461D005C2300B59046C4
:101CC000C25C04000F00012A00D196E00122C25438
:101CD000FEF7F0FA5D23E35C06006268D9B2012BDF
:101CE00012D0822302205B009A4208D05D23012299
:101CF000E2540022013BE25480BCB846F0BDA36828
:101D0000002BF3D10429F1D1002F00D177E0434615
:101D1000002B74D0002D72D05D23E15C042901D02A
:101D20000521E15441460023216446212366655282
:101D300002396552E3642365E023E168A763E58720
:101D4000A587DB0099425CD82368012D00D8B6E056
:101D500059689B48014059601968490600D4B7E0AA
:101D6000002A0BD1E28F012A00D8E5E03A88023739
:101D7000DA60E38FA763023B9BB2E387012346252A
:101D800098460227E38F002B03D1635B002B00D121
:101D900086E023689A68174206D0E28F002A03D0B3
:101DA0004246012A00D1AAE0012108009A681040A9
:101DB000114218D0625B002A15D0625B012A00D85C
:101DC00091E0D968226C8046118002322264625B05
:101DD000023A92B26253625B012A04D880225968A7
:101DE00052010A435A60FEF765FA069B801B98422F
:101DF000C8D30133C6D0032078E702207CE7012056
:101E000074E723686E48596801405960402118689A
:101E1000014202D1186801431960002A4CD13A8866
:101E20000237DA60E38FA763013B9BB2E387069B2F
:101E3000013300D08AE0012346259846022729E095
:101E400023689A68174210D0E28F002A0DD04246CC
:101E5000012A0AD1A26B11880232D960A263E28FF3
:101E6000013A92B2E28700229046012108009A6866
:101E7000104011420CD0625B002A09D08046DA681B
:101E8000236C1A8002332364635B013B9BB2635370
:101E9000FEF710FAE38F002BD2D1635B002BCFD17A
:101EA000320020000699FFF70BFD002800D11DE746
:101EB00020230120236619E7012DB8D1AFE7802147
:101EC00058684901014359601968490600D549E736
:101ED0004020196801431960002A00D142E7012D12
:101EE00000D04BE73EE71B7B226C80461370236CCF
:101EF00001332364635B013B9BB2635373E7E28F5F
:101F0000012A0BD9A26B11880232D960A263E28F39
:101F1000023A92B2E2870022904645E7A26B12781D
:101F20001A730022A36B90460133A363E38F013B36
:101F30009BB2E387236837E73A781A73A36B0133C0
:101F4000A363E38F013B9BB2E38717E70123462599
:101F500098460227E38F002B02D1635B002B9FD0B2
:101F600023689A68174210D0E28F002A0DD04246AB
:101F7000012A0AD1A26B11880232D960A263E28FD2
:101F8000013A92B2E28700229046012108009A6845
:101F9000104011420CD0625B002A09D08046DA68FA
:101FA000236C1A8002332364635B013B9BB263534F
:101FB000FEF780F9069B801B9842CBD3032095E661
:101FC000FFEFFFFF10B584B00C220021684601F03E
:101FD0001FF90421164C174B6161C22123600023B5
:101FE0000122FF31E1619E39FF392000A361636066
:101FF000A360E360226123626354A262FEF704FAE5
:1020000000280FD1802300225B01009201938023DE
:1020100069465B0520000293FEF778FB002804D197
:1020200004B010BD00F048F9ECE700F045F9F7E71F
:102030002C0000200024014010B5040088B01422B8
:10204000002102A801F0E4F8124B22689A4201D064
:1020500008B010BD8020104B800099690143996140
:1020600080219A69890202400092009A5A69902060
:102070000A435A615B6901220B400193019B0323D0
:1020800002920393002302A9C0050493FEF76CFC9F
:10209000DEE7C0460024014000100240F0B5C6460D
:1020A00000B58AB01422002104A801F0B1F8802004
:1020B000304BC00359699024014359615A69E405C2
:1020C000024080200192019A5969800201435961BE
:1020D00080215A69C90202400292029A5A69002577
:1020E0000A435A615B6900220B400393039B224B16
:1020F000022118009846FEF72DFDC0212000002285
:10210000C900FEF727FD0322032304A91B480492FC
:1021100005930695FEF728FC0E220323200004A950
:10212000049205930695FEF71FFC1022144B200025
:1021300004A904920593002600270695FEF714FCD7
:1021400002220123404604A90492059306960797AC
:10215000FEF70AFCC0220123D200200004A9049249
:10216000059306960797FEF7FFFB0AB080BCB846BA
:10217000F0BDC046001002400004004800140048B2
:102180000000211010B594B02C22002109A801F004
:102190003FF810220021684601F03AF81022002191
:1021A00004A801F035F81A231024089308A8193B55
:1021B0000B930D930F930C940E94FEF7E1FC072202
:1021C000002300920193A02200230021684602927E
:1021D0000393FEF72FFF8022802352029B0004A866
:1021E00004920593FEF7E4FF14B010BD70B5FEF73E
:1021F00045F8FFF7C7FFFFF751FFFFF7E3FE00F0D9
:102200002FFF00F0AFFE0421254A264C1368200062
:102210000B431360FEF7FAFA2000FEF79FF96421E2
:102220002000FEF70DFA2000FEF76CFA1E4E3080FB
:102230002000FEF7BFF93388C82B02D8FEF790FCC8
:10224000FCE7012202211948FEF784FC00F030FC73
:102250000028FBD000F0D8F8022000F0E7FD4C2069
:1022600000F098F8F021124800F056FD01220524F4
:102270001100100000F0E4FC33880E4D5BBA2B8097
:102280002800FDF7CDFF013CC1B2280000F050FC52
:10229000E4B2C820FEF714F8002CF1D1CEE7C04616
:1022A000007000402C0000206C000020000400485A
:1022B000A1F0F0F0700000207047C046F0B5C646AF
:1022C00000B584B000230700684643730E336B44A7
:1022D0001A7098462C4B1B781C1C8B4200D90C1C86
:1022E0002A4AE4B21278002A23D0802190200022CA
:1022F000C900C005FEF72EFC64230D22244D414683
:1023000000936A44633B2800FFF7D4FC6423390040
:102310002800A2B2FFF7B6FB802190200122C9005D
:10232000C005FEF717FC6B46587B04B080BCB8466E
:10233000F0BD802190201B1BC900C005DDB2FEF757
:1023400009FC64230D22124E414600936A44633B0C
:102350003000FFF7AFFCA2B26423390030006C1EDE
:10236000FFF790FBE4B2002DD6D00F2500276D4477
:10237000013C6423012229003000E4B22F70FFF7F2
:1023800081FBFF2CF4D1C7E79300002091000020CF
:10239000BC000020F0B5CE4647460E2380B585B080
:1023A0006B44994600234A4613700F336B4498469A
:1023B0000D2780259024252342466F44ED00E40537
:1023C00029003870137020000022FEF7C3FB64233D
:1023D0000C4E4A46414600933000633BFFF76AFCCF
:1023E000FA2339009B0001223000FFF74BFB01224A
:1023F00029002000FEF7AEFB05B0C0BCB946B046D0
:10240000F0BDC046BC0000200023F0B54E46994602
:10241000DE46574645464A46E0B52025FD4B80211D
:102420001A70FD4B90201D70FC4B87B01A70FC4B4E
:1024300005321A704A46FB4B8900C0051A70FEF738
:1024400089FB802190200122C900C005FEF782FB94
:102450000520FDF735FF02AB9C460D270C23674492
:102460000E260F24802190203B704B466444664426
:102470000022C900C00533702570FEF76BFB642392
:10248000E94D9B463200210000932800633BFFF793
:1024900011FCFA2301229B00390028009846FFF71F
:1024A000F1FA802190200122C900C005FEF752FBFD
:1024B0005F2380213B7090204B4600223370C9007F
:1024C0002433C0052370FEF745FB5B463200210034
:1024D00000932800633BFFF7EDFB434601223900E0
:1024E0002800FFF7CFFA802190200122C900C00503
:1024F000FEF730FB0623802190209A4633704B462E
:102500000022C900C0052370FEF724FB43462200C9
:102510003100009328000123FFF7CCFB4346220043
:10252000FF21009328000123FFF7C4FB80219020A6
:102530000122C900C005FEF70DFB07222378802188
:10254000934313433B7090204B4600223370C900E5
:102550002633C0052370FEF7FDFA5A4601232100F9
:10256000009228003200FFF7A5FB43460122390004
:102570002800FFF787FA802190200122C900C005BA
:10258000FEF7E8FA52468021902032704A46C90090
:10259000C0052270FEF7DEFA4246012331000092A8
:1025A00028002200FFF786FB42460123FF2100920C
:1025B00028002200FFF77EFB802190200122C90025
:1025C000C005FEF7C7FA2822237898489343083AB3
:1025D00013431A009B232621037048462170307054
:1025E0008021902003923A70C9000022C005FEF7B6
:1025F000B1FA594601233200009128002100FFF76B
:1026000059FB4346012239002800FFF73BFA80219D
:1026100090200122C900C005FEF79CFA5146317096
:1026200049469020217080210022C900C005FEF794
:1026300091FA414601232200009128003100FFF762
:1026400039FB41460123220000912800FF21FFF7BA
:1026500031FB802190200122C900C005FEF77AFAE3
:102660002378039A9A4202D101236A4A13700623FF
:10267000802190209A46337000230022C900C005B3
:1026800099462370FEF766FAFA239B0098462200CB
:102690003100009328000123FFF70CFB4346220082
:1026A000FF21009328000123FFF704FB80219020E5
:1026B0000122C900C005FEF74DFA2378802103935B
:1026C0005346902033704B460022C900C00523704A
:1026D000FEF740FA43462200310000932800012310
:1026E000FFF7E8FA43462200FF2100932800012368
:1026F000FFF7E0FA802190200122C900C005FEF713
:1027000029FA5522494923780A702D3A93433B70A0
:1027100080214B46902000223370C9002633C0052B
:102720002370FEF717FA642332009B4621000093C2
:102730002800633BFFF7BEFA434601223900280018
:10274000FFF7A0F9802190200122C900C005FEF703
:1027500001FA53468021902033704B460022C90075
:10276000C0052370FEF7F6F94346220031000093BE
:1027700028000123FFF79EFA43462200FF21009321
:1027800028000123FFF796FA802190200122C9003A
:10279000C005FEF7DFF98021902050230022C900F8
:1027A000C0052370FEF7D6F9434601222100280018
:1027B000FFF768F94346012273212800FFF762F909
:1027C000802190200122C900C005FEF7C3F94B46C5
:1027D0008021902000223B703370C9003D33C0053A
:1027E0002370FEF7B7F95B46320021000093280002
:1027F000633BFFF75FFA4346012239002800FFF7E9
:1028000041F9802190200122C900C005FEF7A2F9FC
:102810000EE0C046920000209300002091000020AE
:102820009000002094000020BC00002099000020AF
:102830004B468021902000223B703370C9003C330E
:10284000C0052370FEF786F95B4632002100009335
:102850002800633BFFF72EFA434601223900280087
:10286000FFF710F9802190200122C900C005FEF772
:1028700071F94A468D4B80211A70702390203B706D
:102880004B46C9002733C00532702370FEF762F94A
:102890005B463200210000932800633BFFF70AFAF1
:1028A0004346012239002800FFF7ECF880219020F0
:1028B0000122C900C005FEF74DF94C2380213B7071
:1028C00090204B4600223370C9002533C005237089
:1028D000FEF740F95B463200210000932800633B7D
:1028E000FFF7E8F94346012239002800FFF7CAF84C
:1028F000802190200122C900C005FEF72BF9E223B8
:102900008021902033704B460022C900C0052370FF
:10291000FEF720F9434622003100009328000123EE
:10292000FFF7C8F9802190200122C900C005FEF7F9
:1029300011F9E1238021902033704B460022C90019
:10294000C0052370FEF706F94346220031000093CC
:1029500028000123FFF7AEF9802190200122C90051
:10296000C005FEF7F7F8802190204B460022C900F1
:10297000C00533702370FEF7EDF8434622003100A6
:10298000009328000123FFF795F943462200FF2119
:10299000009328000123FFF78DF980219020012268
:1029A000C900C005FEF7D6F80222110023781940AD
:1029B0001A4256D08021902000230022C900C00571
:1029C000984633702370FEF7C5F8FA239B009946AA
:1029D00022003100009328000123FFF76BF94B46DA
:1029E00022000093FF2101232800FFF763F98021D3
:1029F00090200122C900C005FEF7ACF8012223781F
:102A0000802193433B709020434600223370C900DD
:102A10002033C0052370FEF79DF8642332002100A7
:102A200000932800633BFFF745F94B46390001222C
:102A30002800FFF727F8802190200122C900C00557
:102A4000FEF788F8FD224046039B013BDBB29A4229
:102A50004041C0B207B0F0BCBB46B246A946A04652
:102A6000F0BD13433170902080213B702023002261
:102A7000C900C0052370FEF76DF85B4632002100E7
:102A800000932800633BFFF715F943463900012204
:102A90002800FEF7F7FF802190200122C900C00521
:102AA000FEF758F80520FDF70BFC83E791000020A6
:102AB000F0B5CE4647460E2380B585B06B449946A7
:102AC00003234A4680269025137000246B46F600A7
:102AD000ED05310028000022DC73FEF73BF8FA23F5
:102AE0000F229B009846114F494600936A440123E8
:102AF0003800FFF7DFF843460F2200936A440123B2
:102B0000FF213800FFF7D6F8280001223100FEF738
:102B100021F86B460222DB7B013BDBB29A42644127
:102B2000E0B205B0C0BCB946B046F0BDBC00002064
:102B3000F0B5C64600B5B02284B0FFF7BFFB8021D8
:102B4000902001228900C005FEF704F800230F241D
:102B500098463A4F03AE6C44FF2380219020FA251B
:102B6000337043460022C900C005AD002370FDF755
:102B7000F1FF01232200310038000095FFF79AF899
:102B8000802190200122C900C005FDF7E3FF30221B
:102B900023781A42E0D08021902000228900C005CD
:102BA0000D26FDF7D7FF70236E44424633706B4607
:102BB000802190209A7327230022C900C00523702A
:102BC000FDF7C8FF64230E22210000936A44633B93
:102BD0003800FFF76FF82B00012231003800FEF7B4
:102BE00051FF802190200122C005C900FDF7B2FFEE
:102BF0006B469B7B0120DB0603D404B080BCB84647
:102C0000F0BDE1236A468021902093734346002261
:102C1000C900C0052370FDF79DFF0E21012322008E
:102C2000694438000095FFF745F880219020012283
:102C3000C005C900FDF78EFF0020DEE7BC000020C4
:102C40000023F0B5DE4657464E4645469946E0B568
:102C50008026902585B06B4614004A46F600ED05A7
:102C600083468A46280031009A73DA73FDF772FFB3
:102C7000FA230F229B000E219846264F00936A44A8
:102C8000694401233800FFF715F843460F220093EB
:102C90006A440123FF213800FFF70CF831002800B7
:102CA0000122FDF757FF6B46DA7B70239A435B46A0
:102CB0005801534619010D23A401144304436B44E6
:102CC0000C439A464A461C706B469A7320236A4608
:102CD00031002800D3730022FDF73CFF64230E224D
:102CE0000F2100936A4469443800633BFEF7E2FF1A
:102CF0004346514601223800FEF7C4FE012231004E
:102D00002800FDF727FF05B0F0BCBB46B246A94638
:102D1000A046F0BDBC000020F0B5D6464F46464662
:102D2000C0B53F4B86B09A461B7880259946002354
:102D300098466B46424690249A752A236A46ED00CF
:102D4000E40502900391D375290020000022FDF7CD
:102D500001FF642716221721324E6A446944012379
:102D600030000097FEF7A6FF4B4602A99AB230004A
:102D70006423FEF787FE290020000122FDF7EAFE0A
:102D800053461B78424699466B469A7530236A46ED
:102D900029002000D3750022FDF7DCFE1622172142
:102DA0006A446944012330000097FEF783FF4B46D5
:102DB00002A99AB230006423FEF764FE29002000C5
:102DC0000122FDF7C7FE15236B4499464A46164B70
:102DD00029001B78200013706B4642469A753123F8
:102DE0006A46D3750022FDF7B5FE162217216A4404
:102DF0006944012330000097FEF75CFFFA2349463F
:102E00009B0001223000FEF73DFE01222900200038
:102E1000FDF7A0FE06B0E0BCBA46B146A846F0BD3C
:102E200090000020BC00002093000020F0B5CE46AA
:102E3000474680B585B006236A4607000F258021E6
:102E40009020937300236D440022C900C005FA242A
:102E50002B70FDF77FFE0E21404EA40001232A00B7
:102E6000009469443000FEF725FF01232A00FF216A
:102E700000943000FEF71EFF802190200122C9003F
:102E8000C005FDF767FE28232C789C43022F5FD0F6
:102E9000012F57D05522324B1A700D236B441C70F2
:102EA0009946002398466B464246802190209A73AB
:102EB0002623C900C0052B70FA27FDF74BFE6423BB
:102EC0000E22BF00290000936A443000633BFEF7E6
:102ED000F1FE3B00494601223000FEF7D3FD802180
:102EE00090200122C900C005FDF734FE6A46062382
:102EF00080219020937343460022C900C0052B70A7
:102F0000FDF728FE0E212A006944012330000097B6
:102F1000FEF7D0FE01232A00FF2130000097FEF7C4
:102F2000C9FE802190200122C900C005FDF712FED4
:102F30002878201A44426041C0B205B0C0BCB946EE
:102F4000B046F0BD082341221C43054B1A70A4E78C
:102F50009B22083B1C43024B1A709EE7BC000020DA
:102F60009900002070B5002690B01422002101A81D
:102F700006AC00F04DF9282200212000009600F058
:102F800047F9264D264B28002B607F23AB6080330A
:102F90006E60EB602E616E61AE61FEF79FF90028F6
:102FA00030D100236A4669469380002228008A7146
:102FB000012201A904930593FEF700FA00282AD103
:102FC000184B0122694628000093FEF7CDFA00282D
:102FD0001ED1154900238022616101215200A37096
:102FE0006360E3602361A361E36120332280E154E5
:102FF000626221002800FF3AFEF76EFB002804D130
:1030000010B070BDFFF758F9CBE7FFF755F9F7E7B8
:10301000FFF752F9DDE7FFF74FF9D1E79C000020F9
:103020000028004001010100000080800A4B026876
:1030300010B59A4200D010BD8023084A1B02116AC5
:1030400002200B43136200210022FDF735FC022011
:10305000FDF764FCEFE7C046002800400010024086
:10306000E0221048104B10B503608223D200C260EA
:1030700080225B004360002392008261FA3AFF3AAB
:10308000836003614361C361036243628362C2621E
:1030900003634363FEF786FC002800D110BDFFF7F1
:1030A0000BF9FBE7BC0000200030014010B5040024
:1030B00088B01422002102A800F0AAF8144B22685C
:1030C0009A4201D008B010BD8020124B400199698E
:1030D0000143996180219A69890202400092009A15
:1030E0005A6990200A435A615B69E0220B400193C0
:1030F000019B02230292039300220323049205936F
:10310000002302A9C0050693FDF72EFCDAE7C046AE
:10311000003001400010024001220A4B82B0996940
:103120001143996199690A4080210092009ADA69F5
:1031300049050A43DA61DB690B400193019B02B048
:103140007047C046001002407047C046FEE7C046C8
:103150007047C0467047C04610B5FDF79FF810BDD8
:1031600010B50248FEF78EFB10BDC0469C00002043
:103170007047C0460D4885460D480E490E4A00234B
:1031800002E0D458C4500433C4188C42F9D30B4A1B
:103190000B4C002301E013600432A242FBD3FFF783
:1031A000E7FF00F011F8FFF721F8FEE7001000201C
:1031B000000000200C000020783200080C000020E5
:1031C00020010020FEE7000070B500260C4D0D4CDC
:1031D000641BA410A64209D1002600F021F80A4D74
:1031E0000A4C641BA410A64205D170BDB300EB5875
:1031F00098470136EEE7B300EB5898470136F2E7FF
:103200007032000870320008703200087432000812
:1032100003008218934200D1704719700133F9E717
:10322000F8B5C046F8BC08BC9E467047F8B5C04625
:08323000F8BC08BC9E46704783
:1032380002030405060708090A0B0C0D0E0F1010EF
:10324800000000000102030405060708090A0B0C28
:103258000D0E0F100000000000000000000000002C
:08326800010203040607080936
:04327000E900000869
:04327400C10000088D
:0C327800010000000400000000127A00B9
:040000050800317549
:00000001FF
