:020000040800F2
:1000000000100020D12C0008A52C0008A92C000805
:1000100000000000000000000000000000000000E0
:10002000000000000000000000000000AD2C0008EF
:100030000000000000000000B12C0008B52C0008F2
:10004000212D000800000000BD2C0008212D000813
:10005000212D0008212D0008212D0008212D000848
:1000600000000000212D0008212D0008212D00088E
:10007000212D0008212D0008212D0008000000007E
:10008000212D00080000000000000000212D0008C4
:1000900000000000212D0008212D0008212D00085E
:1000A00000000000212D000800000000212D0008A4
:1000B0000000000000000000000000000000000040
:1000C00010B5064C2378002B07D1054B002B02D02E
:1000D000044800E000BF0123237010BD1000002081
:1000E000000000007C2D0008044B10B5002B03D04D
:1000F0000349044800E000BF10BDC04600000000F6
:10010000140000207C2D0008002243088B4274D389
:1001100003098B425FD3030A8B4244D3030B8B4208
:1001200028D3030C8B420DD3FF22090212BA030C11
:100130008B4202D31212090265D0030B8B4219D3F2
:1001400000E0090AC30B8B4201D3CB03C01A524112
:10015000830B8B4201D38B03C01A5241430B8B425A
:1001600001D34B03C01A5241030B8B4201D30B0343
:10017000C01A5241C30A8B4201D3CB02C01A52416A
:10018000830A8B4201D38B02C01A5241430A8B422D
:1001900001D34B02C01A5241030A8B4201D30B0216
:1001A000C01A5241CDD2C3098B4201D3CB01C01A30
:1001B000524183098B4201D38B01C01A524143093A
:1001C0008B4201D34B01C01A524103098B4201D328
:1001D0000B01C01A5241C3088B4201D3CB00C01A95
:1001E000524183088B4201D38B00C01A524143080D
:1001F0008B4201D34B00C01A5241411A00D2014632
:10020000524110467047FFE701B5002000F006F8A4
:1002100002BDC0460029F7D076E770477047C04658
:1002200010B50400FA200E4B80001978FFF76CFF20
:100230000C4B01001868FFF767FF00F077FB002800
:100240000CD10130032C00D910BD0238002221004E
:1002500000F02EFB044B00201C60F5E70120F3E7C3
:100260000000002008000020040000201021064AA1
:1002700010B5136800200B431360FFF7D1FF02F0A5
:10028000F9FC002010BDC04600200240034A044B88
:1002900011681B785B1813607047C0462C00002063
:1002A00000000020014B18687047C0462C00002059
:1002B00070B50400FFF7F6FF0500631C02D0044B85
:1002C0001B78E418FFF7EEFF401BA042FAD370BD85
:1002D000000000200323026870B5916804000B4001
:1002E000012B01D0002070BD11680B420ED00523F8
:1002F00091680B40012B0DD01022A36B01201343FA
:10030000A363E36B0F3A1343E363ECE7D3681B0487
:10031000E8D5ECE70221936801260B4393600323A1
:100320001360FFF7BFFF050004E0FFF7BBFF401BB2
:10033000022804D823689B681E42F6D1D2E7102217
:10034000A36B01201343A363E36B1E43E663CAE779
:10035000002370B5026882B00193916803330400F2
:100360000B40012B31D09168204B194223D1012140
:1003700093680B4393601E4B1E491868FFF7C4FE39
:100380000190019B002B05D0019B013B0193019B38
:10039000002BF9D1FFF786FF0126050004E0FFF7E7
:1003A00081FF401B022817D823681B681E42F6D025
:1003B000002002B070BD1022A36B01201343A36381
:1003C000E36B0F3A1343E363F3E711680B42EFD19A
:1003D000D3681B04ECD4C6E71022A36B012013439F
:1003E000A363E36B1E43E663E3E7C04617000080A8
:1003F0000800002040420F000422036870B599688D
:1004000004000A4210D099680A420FD1FFF74AFF50
:100410000426050004E0FFF745FF401B02280DD825
:1004200023689B681E42F6D1002070BD9A6892072F
:10043000ECD410219A680A439A60E7E71022A36B74
:1004400001201343A363E36B0F3A1343E363ECE729
:10045000F8B5041E00D185E0836B002B00D16BE062
:10046000A36BDB0662D404210D0023689A68154053
:1004700011425BD1A26B48490A400631FF310A4361
:10048000A263032299680A40012A5BD01821DA6826
:100490008A43A1680A43DA601A6961689200920887
:1004A0000A431A61DA683D490A40DA60217E627EB9
:1004B0008903D2031143A26AA67E013A501E8241EB
:1004C0001003E2687703114322693943022A00D1FD
:1004D00004252422A25C52000A43E17E02432A43FF
:1004E00001294BD0C220E169FF30814202D0206A4D
:1004F00001430A43D968E56A1143D960802149055F
:100500008D4226D0691E062923D9DB6824490B4079
:10051000934229D01222A36B01209343023A134342
:10052000A363E36B0F3A1343E36304E0102201205B
:10053000A36B1343A363F8BD3422C363835401F058
:1005400021FE8DE719680A42ACD1DA681204A9D4F9
:100550009CE707215869884358615869294001433D
:100560005961D2E70120E6E700230322E363A36B8E
:1005700000209343023A1343A363DCE7002E03D128
:10058000802149020A43ADE72025A06B2843A063E0
:10059000E06B0143E163A5E7FDFEFFFF1902FEFFEB
:1005A000E7FF3F83036810B59A680400520721D41F
:1005B0003422815C01291DD001218154427E012A0F
:1005C00012D1A26B0C4900201140802252000A4334
:1005D000A26334210022E26362541C321A609A68DA
:1005E00030390A439A6010BDFFF7B2FE0028FAD1F5
:1005F0002368E6E70220F6E7FEF0FFFF342370B53C
:10060000C25C0400012A14D00125C554FFF7F4FE92
:10061000002803D034230022E25470BD2000FFF7ED
:1006200059FE0028F6D1A36B034A13401D43A5636E
:10063000F0E70220F1E7C046FEFEFFFFF8B545698E
:1006400006000C00082D04D003680C25DB68DB07CE
:100650003FD4FFF727FE0700326801E0631C25D175
:1006600013681D42FAD08023B16B9B000B43B36328
:10067000C023D1681B01194213D1B37E002B10D1C6
:1006800013681B070DD593685B072BD40C215368A7
:100690008B435360B36B18490B400431FF310B435C
:1006A000B363307E002811D00020F8BD002C04D0A8
:1006B000FFF7F8FDC01BA042CED90422B36B032084
:1006C0001343B36300223423F254EEE70C23136088
:1006D000EBE72022836B1343836300223423C2544D
:1006E0000120E2E72021B36B0B43B363F36B1F39A7
:1006F0000B43F363D5E7C046FEFEFFFF0368186CAB
:100700007047C04670B500230400342282B00193C4
:10071000A35CC06A012B51D00123A35422689568C1
:100720006D0709D520220120A36B1343A363342353
:100730000022E25402B070BD2D4D4E68AE4228D06A
:100740000D68966AAB403343936280235B05984201
:100750000FD0013806280CD9072388685169194041
:10076000884206D0516999435161516903400B4356
:1007700053612B00103B012B01D90020D7E71D4B03
:100780001968102D1CD08022D2030A4300201A6061
:10079000CDE70968906A8B4010399843906201292F
:1007A000EBD84B424B415942134B124A9C461068BE
:1007B00089056144014011600020B8E70220B9E7D3
:1007C000802212040A431A600C4B0D491868FFF787
:1007D0009BFC83001B185B000193019B002BCCD07A
:1007E000019B013B0193019B002BF9D100209EE767
:1007F0000110000008270140FFFFBFFF0800002094
:1008000040420F00342370B5C25C0400012A4BD073
:100810000122C2540368023299680A40012A05D1B4
:1008200019680A422FD1DA6812042CD4A26B1F492E
:100830000A400631FF310A43A263DE68DA680131FB
:100840008A43DA608022996812060A439A60FFF7A9
:1008500029FD050004E0FFF725FD401B022818D8FC
:1008600023689A68002AF6DB03220020D968164024
:100870000E43DE60A36B9343023A1343A363342316
:100880000022E25470BD2022A36B01201343A36316
:10089000F5E71222A36B01209343023A1343A363AB
:1008A00000223423E254EDE70220EBE7FDFEFFFFD8
:1008B00070B5002814DB154B03229C46FF238408E7
:1008C00010401A00C026C000890182400B408340BE
:1008D000A4006444B600A55995432B43A35170BDB1
:1008E0000B4A0F239446032203401040FC321500AC
:1008F000C000890185400A408240083B9B089B005C
:100900006344DC69AC432243DA61E8E700E100E0DC
:1009100000ED00E0002805DB1F2318401E3B83404C
:10092000014A13607047C04600E100E08022431E88
:100930005204012093420ED2C021074A0748536057
:10094000036A09061B021B0A0B43036200230020F3
:10095000936007331360704710E000E000ED00E0A3
:1009600010210D4B10B5DA680B001340114205D071
:100970000A4A0E39D3690B43D3611023064AD16862
:1009800004220A4205D0012404481343C1692143CB
:10099000C161014AD36010BD002002403000002038
:1009A000064B00201A69120606D5054A5A60054A08
:1009B0005A6018690006C00F7047C0460020024008
:1009C00023016745AB89EFCD8021034A00201369DD
:1009D0000B4313617047C04600200240F8B5040085
:1009E000FFF760FC01260700124D01E0631C0FD1E8
:1009F000EB681E42FAD12023EA68134211D10D4B55
:100A0000DA68D20612D4DB6800205B070ED4F8BD8A
:100A1000002C04D0FFF746FCC01BA042E8D90320FD
:100A2000F5E7EB60034BDA68D206ECD5FFF798FFE9
:100A30000120ECE700200240F0B54E465746DE4666
:100A40004546E0B59A4683B02A4B019299461B7EF3
:100A500004000E00012B48D001254B4626481D7688
:100A6000FFF7BCFF002836D1012C40D0023C604289
:100A7000444104236442AC43A0469C46E044002326
:100A800000259B4618E05346D3404A465946012765
:100A90001A4CD16122699BB23A43226116483380D5
:100AA000FFF79CFF2369BB432361002813D1013565
:100AB000EBB2023698450ED920222B0152429A18E9
:100AC000E1D520225146D21A91400A000199D9401D
:100AD0000B001343D9E700234A46137603B0F0BC5A
:100AE000BB46B246A946A046F0BD0220F6E7012368
:100AF0009846C4E73000002050C3000000200240A8
:100B0000F0B546464F46D646C0B5304F06003B7E50
:100B10008846012B57D001233B7603682C48012BD4
:100B200034D0FFF75BFF002834D1012342465B42FB
:100B30001360B36875689B025B199D422AD200233B
:100B4000244C99460AE08023DB009C467268654489
:100B50009446B3689B026344AB421CD902224B46C5
:100B60009246FB6123691A48134323616561236937
:100B70003E3213432361FFF731FF5246236993430B
:100B800023610028DFD043461D6004E0FFF726FF05
:100B9000002807D0012000233B76E0BCBA46B146CE
:100BA000A846F0BD042540220A4CF8612369084894
:100BB0002B432361236913432361FFF70FFF23694D
:100BC000AB432361E7E70220E7E7C046300000209F
:100BD00050C30000002002400B68F0B54E46994615
:100BE000DE46574645464A46E0B5002387B0002A10
:100BF0007AD001229246674AC8469346664F0191D1
:100C0000524644469A40144002944446144267D0E7
:100C1000019949680E00894610218E43741E012CEB
:100C200069D903255C00A540C268E943AA431500C1
:100C3000019A03919268A2402A43C2604946032662
:100C400002680E40039DA640802115404A462E436F
:100C5000490506600A4243D05A4651469269032527
:100C60000A4359468A618A6951460F260A404B4910
:100C70001D408C46AD00AE4090210592059A9A0821
:100C8000920062449468C905B44388420DD0444E32
:100C9000B04200D176E0434EB04200D176E0424E01
:100CA000B0426BD00526AE40344302999460CD43E8
:100CB00049463A68C9035ED42A4049463A607A6890
:100CC000890355D42A407A604A46BC68D2024CD483
:100CD0002C404946BC60FA68890241D42A40FA6037
:100CE00042460133DA408BD107B0F0BCBB46B24676
:100CF000A946A046F0BD03215C00A1408C46C94333
:100D00000391614685688D430199C968A1400D43EF
:100D100085604568514695434A4612090A409A4003
:100D20002A4342606246C568019995438A68A24099
:100D30002A43C260022E00D080E707251D40AD0087
:100D40000D36AE40DA0892008218116AB1438C4623
:100D500001990969A9400D0061460D4315626DE7CF
:100D6000029911430A00FA60BAE7029A1443B0E705
:100D700002990A43A7E702990A439EE70321A94083
:100D80000C4392E75146A9400C438EE70226AE4041
:100D900034438AE700100240000401400000014093
:100DA0000004004800080048000C0048002A01D058
:100DB000816170478162FCE70221054A13680B4399
:100DC0001360044A023113690B43136130BF70474B
:100DD0000070004000ED00E0F0B5CE46474680B51B
:100DE000040083B0002800D1EEE00368DA0735D5AF
:100DF0000C21C34842680A40042A00D101E142683C
:100E00001140082900D1F8E06368012B0FD0002BB6
:100E100000D11EE1052B00D1A7E1B94BB9491A68F1
:100E20000A401A601A68B8490A401A6005E080232F
:100E3000B34A5B0211680B431360FFF733FA802655
:100E40000500AF4FB60205E0FFF72CFA401B6428FF
:100E500000D9FCE03B683342F6D023689A0729D5D5
:100E60000C22A7494868024200D1A6E04868024027
:100E7000082A00D19DE0E368A14D002B00D11FE1BD
:100E800001222B68022713432B60FFF70BFA0600A1
:100E900005E0FFF707FA801B022800D9D7E02B688E
:100EA0001F42F6D0F8212A6823698A43DB001343E6
:100EB0002B6023681A072DD45A0744D580220020BE
:100EC0008F4B5205D9698146114208D1D969114326
:100ED000D961DB691A400192019B01239946802761
:100EE0008A4E7F0033683B4200D194E0A368012B17
:100EF00000D1F8E0002B00D1C4E0052B00D140E187
:100F000001217F4B1A6A8A431A621A6A03318A43A3
:100F10001A62ECE0E3697A4D002B5BD001226B6A28
:100F2000022713436B62FFF7BDF9060005E0FFF7E8
:100F3000B9F9801B022800D989E06B6A1F42F6D0FC
:100F400023685A07BAD4DB0612D56369012B00D196
:100F50003DE1053300D0E9E00421F820684A536BF5
:100F60008B435363516BA3698143DB000B43536392
:100F7000236A002B1BD00C22614E71680A40082A9C
:100F800000D108E1022B00D13FE13368604A80259F
:100F900013403360FFF786F9AD04040004E0FFF767
:100FA00081F9001B022852D833682B42F7D1002068
:100FB0000BE04A68D20300D55DE7514A12689207F8
:100FC00039D5E268012A36D0012003B0C0BCB94649
:100FD000B046F0BD01226B6A022793436B62FFF7B4
:100FE00061F9060004E0FFF75DF9801B02282ED8A6
:100FF0006B6A1F42F7D12368A3E74268D20300D48B
:1010000002E73F4A1268920300D427E76268002A89
:1010100000D023E7D8E733683B433360FFF742F95A
:10102000050004E0FFF73EF9401B64280FD8336841
:101030003B42F7D05AE7F825314822690168D200CF
:10104000A9430A4302601A0700D435E762E7032088
:10105000BBE72B4D2B4A2B68802713402B602B6856
:10106000294ABF0213402B60FFF71CF9060004E079
:10107000FFF718F9801B6428E9D82B683B42F7D1A9
:101080002368EBE601221E4E224D336A93433362FE
:10109000336A033293433362FFF704F902230700F4
:1010A000984604E0FFF7FEF8C01BA842CFD842469E
:1010B000336A1A42F6D14B46012B4FD0236842E7E0
:1010C00001222B68022793432B60FFF7EBF8060001
:1010D00004E0FFF7E7F8801B0228B8D82B681F420E
:1010E000F7D12368E6E606490A6A13430B62FFF765
:1010F000D9F8034B060098460227064D11E0C0467A
:1011000000100240FFFFFEFFFFFFFBFF00700040EA
:10111000FFFFFFFE88130000FFF7C4F8801BA84202
:1011200095D843461B6A1F42F6D0C4E70422534DAC
:1011300002276B6B13436B636B6B033A93436B63D5
:10114000FFF7B0F8060005E0FFF7ACF8801B0228B7
:1011500000D97CE76B6B1F42F6D109E7474A484943
:10116000D3690B40D3612368EDE68022434BD20262
:1011700019680A431A608022196852020A431A60E9
:101180005BE604213D4B1A6A0A431A621A6A033964
:101190000A431A62ABE7012B00D115E7802372687E
:1011A000656A5B020120F16A1340AB4200D00CE794
:1011B0000F230B40E16A8B4200D006E7F02080034A
:1011C0000240A06A101A421E9041C0B2FDE60421FE
:1011D0002A4E0227726B0A437263726B1343736366
:1011E000FFF760F8050005E0FFF75CF8401B0228F8
:1011F00000D92CE7736B1F42F6D0F821726BA369FC
:101200008A43DB0013437363B2E633681D4A8027C9
:1012100013403360FFF746F8BF04050005E0FFF711
:1012200041F8401B022800D911E733683B42F6D150
:101230000F22F36A80259343E26AAD041343F362FD
:10124000616AA36A72680B430F490A4013437360D3
:10125000802332685B0413433360FFF723F8074EA3
:10126000040005E0FFF71EF8001B022800D9EEE697
:1012700033682B42F6D00020A7E6C046001002409B
:10128000FFFFFFEFFFFFFFFEFFFFC2FF70B588B05B
:1012900069460A00154B31CB31C21B68136004AAA2
:1012A0001000134B70CB70C01B68124C03600C23F2
:1012B00060680340082B02D00F4808B070BD0733A8
:1012C000850C1D404D5DE16A0B40D15CC30304D524
:1012D0000948FEF719FF6843EFE76B015B1B9801B4
:1012E000C01AC00040190002E7E7C046942D00086C
:1012F000A82D00080010024000127A00F8B5CE4672
:10130000474604000D0080B500280DD001233B495D
:101310000A681A40AA420CD20A689A432A430A6011
:101320000A681340AB4204D00120C0BCB946B046A5
:10133000F8BD23689A070ED55A0705D5E022304933
:10134000D200486802434A60F0202D494A6882432F
:10135000A06802434A60DB0722D5294B62681B68FC
:10136000012A46D0022A41D09B07DDD50321244E15
:1013700073688B4313437360FEF794FF0C23984606
:10138000204B0700994604E0FEF78CFFC01B484540
:1013900032D8434672681A4063689B009A42F3D180
:1013A0000121164A13680B40AB4205D913688B43E1
:1013B000136013681942B7D123685B0706D5104A3A
:1013C000114953680B40E1680B435360FFF75EFF20
:1013D0000B4B0E4A5B681B061B0FD35CD8400C4BB3
:1013E00018600020FEF71CFF00209EE79B01BDD483
:1013F0009AE79B03BAD497E7032096E700200240C0
:101400000010024088130000FFF8FFFFBC2D000809
:1014100008000020F0B5CE46474680B503680400BA
:1014200083B0DA0332D5802200203F4B5205D969C0
:101430008046114242D080263C4D76002B683342D4
:101440004BD0394DC0222B6A920018001040134235
:1014500062D061680A4082420ED08022286A2E6AD9
:10146000520232432A622A6A314B324E03403240E2
:101470002A622B62C30740D42B4A2D48136A0340CB
:101480000B4313624346012B48D02368DA0706D585
:10149000032025490A6B8243A06802430A630020A7
:1014A0009B0606D51021204A136B8B43E1680B4342
:1014B000136303B0C0BCB946B046F0BDD9698026FD
:1014C0001143D961DB69194D1A400192019B012337
:1014D00098462B6876003342B3D12B6833432B6098
:1014E000FEF7E0FE07002B683342AAD1FEF7DAFED2
:1014F000C01B6428F7D90320DBE7FEF7D3FE0E4BB1
:1015000006000227994604E0FEF7CCFE801B484502
:10151000F1D82B6A1F42F7D06168ADE7D36907495C
:101520000B40D3612368B1E7001002400070004017
:10153000FFFCFFFFFFFFFEFF88130000FFFFFFEF30
:10154000F8B54546DE4657464E46E0B5037F0500F2
:10155000012B00D1BFE001230468037701334377F7
:10156000A3684020002A62D002001A40184200D12D
:10157000ADE0CA7812044B69CE691E438B781E43D6
:101580000B781B041E434B781B021E432023CB5CAD
:101590001B061E431643B0464B68504A9A468B6959
:1015A0009B46CA236362773B6362A3681340A360D0
:1015B000FF23E2681A404A4B1343E360FEF772FED2
:1015C000FA239B0007000124994605E0FEF76AFE16
:1015D000C01B484500D972E026002A68D3681E4027
:1015E0001C42F3D043465946D36153460B435364E0
:1015F000802391685B000B439360802391685B01BB
:101600000B4380219360374B8902186808431860A8
:10161000986801439960FF235362002300206C7790
:101620002B77F0BCBB46B246A946A046F8BD0600E3
:101630001E40B44618424CD0CF783B049C460878F4
:10164000CF69092808D900230A38C0B20133092814
:10165000FAD81B011843C0B20304487898460928F9
:1016600008D900230A38C0B201330928FAD81B016F
:101670001843C0B28E780002092E08D900230A3E12
:10168000F6B20133092EFAD81B011E43F6B220230D
:10169000CB5C092B07D90A3BDBB20132092BFAD804
:1016A00012011343DBB24A691B0617436246174314
:1016B00042461743384306431E43B0466CE7FF22B9
:1016C0002B6803205A6203232E776B77A9E7CA7031
:1016D00051E7CE70B3E70220A3E7C046FFFEFFFF4D
:1016E0007FFEFFFF000401407047C046036810B54D
:1016F0009A680400D20402D5DB68DB0506D4802298
:10170000074B92025A610123637710BDFFF7ECFF8C
:10171000FF232168CA681A40024B1343CB60EEE7EF
:10172000000401407FFEFFFFA0210268F8B5D368E6
:1017300004008B43D360FEF7B5FDFA270500202691
:10174000BF0004E0FEF7AEFD401BB84205D8236899
:10175000DB681E42F6D00020F8BD0320FCE7C0463F
:10176000F8B503680400DA68520601D50020F8BD18
:1017700001225242DA60FEF795FDFA270500402665
:10178000BF0004E0FEF78EFD401BB84204D823687A
:10179000DB681E42F6D0E9E70320E8E770B5041ED7
:1017A00048D0437FDAB2002B40D00223CA226377AD
:1017B000236820005A62773A5A62FFF7D1FF236804
:1017C000051E2DD19A681C4920690A409A606268FA
:1017D00099680243606902430A439A60E2681A61A9
:1017E000A268196912040A4380211A61DA688A43DF
:1017F000DA609A6892060DD51A6C10490A401A648C
:101800001A6CA1690A431A64FF225A6201236377A2
:10181000280070BD2000FFF787FF23680028EBD069
:10182000FF225A62042301256377F1E7027701F072
:10183000ADF9BAE70125EBE7BFFF8FFFFFFFFBFF25
:10184000F8B5037F05000E00012B00D189E00123CC
:101850000377013343770068002A3BD040210B0017
:1018600082681340114200D177E0F3781B0434788A
:101870007178240409020C43B1780C431C43CA2339
:101880004362773B43622800FFF76AFF071E5BD184
:10189000354B2A681C4014609368344930690B400A
:1018A0009360F368916803430B4380219360D3688E
:1018B0008B43D36093689B063ED42800FFF734FF28
:1018C000002838D0FF222B685A6204232F776B77C9
:1018D000012737E040210F0083681F4019423ED0A6
:1018E000F7783F043178092908D900230A39C9B2A9
:1018F00001330929FAD81B011943C9B273780904C5
:10190000092B08D900240A3BDBB20134092BFAD891
:1019100024012343DBB2B4781B02092C07D90A3C0B
:10192000E4B20132092CFAD812011443E4B239436B
:101930000B431C43A3E72A68FF235362FE3B6B77EC
:1019400000232B773800F8BDFF222B6801275A624D
:1019500004236B7700232B77F4E7F37087E7F770A6
:10196000C0E70227EEE7C0467F7F7F00FFFFFBFF57
:1019700070B5037F0500012B00D179E001230377C7
:1019800001334377002A2BD0C8784C780004240216
:1019900020438C7820430C7864030443CA222B68CC
:1019A00028005A62773A5A62FFF7DAFE061E52D1D1
:1019B00080223148296820404860CB689343CB603F
:1019C0008B689B063FD42800FFF7AEFE002839D075
:1019D000FF222B685A6204232E776B77012638E0AA
:1019E00010204B7818423FD083430A33CC78DBB2C7
:1019F0004B70092C3ED900200A3CE4B20130092C7E
:101A0000FAD800010443E4B22404092B08D90020C9
:101A10000A3BDBB20130092BFAD800010343DBB2E9
:101A200088781B02092807D90A38C0B20132092870
:101A3000FAD812011043C0B20A78520314431C436F
:101A40000443ABE72968FF234B62FE3B6B7700231F
:101A50002B77300070BDFF222B6801265A620423C9
:101A60006B7700232B77F4E7CC78092CC3D8CBE72E
:101A70000226EEE72404CAE73FFFFF00E0210368E7
:101A800010B55A688A435A608222416852009142D6
:101A900013D08021826A89018A4206D119680E4CCE
:101AA0002140196019680A431A605D230122C2545B
:101AB0000022013BC254032010BD8021826809022C
:101AC0008A4203D08021C9008A42E2D140211A68AB
:101AD0008A431A60DDE7C046FFDFFFFFF8B5060066
:101AE0000C0017008025316801E0631C04D18B686D
:101AF0001D42FAD10020F8BDFEF7D4FBC01B844282
:101B0000F1D83000FFF7BAFFF5E7C046F8B5474611
:101B1000CE4680B5C02780460C0016009946FF00CF
:101B200043461D6801E0731C07D1A96821420ED00D
:101B3000BC42F8D12B7B731CF7D0FEF7B3FB4B46AE
:101B4000C01A8642ECD84046FFF798FF00E000201C
:101B5000C0BCB946B046F8BD70B513000D00160004
:101B60000A00C02149010400FFF7D0FF00280FD16F
:101B7000320029002000FFF7B1FF002808D1C02162
:101B800033002A002000C900FFF7C0FF002804D05E
:101B900020220320236E1343236670BDF8B5041E74
:101BA00060D0002383625D33C35CDAB2002B54D073
:101BB0005D2302224021E2542268E66813688B43C9
:101BC0001360E023DB009E422FD9F0231B019E42CD
:101BD0004AD1236BA76A002B32D00021A568636825
:101BE000A0692B4325692B4365692B43E5692B438A
:101BF000256A2B438025AD0005402B433B431360F2
:101C0000636A656B33432B430425000C2840034370
:101C10000B435360D369184900200B40D361002364
:101C2000012223665D33E254F8BD9E420CD00023AE
:101C3000276BA362002F0BD0802100274901CDE73D
:101C4000022300212363C9E7236BA76A002B01D17C
:101C50000123236380214901C0E75C33C25400F0B3
:101C6000D5FFA5E70120DFE70023276BA362002F44
:101C7000E6D00027B1E7C046FFF7FFFFF0B5C64644
:101C80001D005C2300B59046C25C04000F0082B0CA
:101C9000012A5ED00122C254FEF704FB5D22A35C40
:101CA0000600D8B2012B0AD002205D230122E254A3
:101CB0000022013BE25402B080BCB846F0BD002FC8
:101CC000F3D04346002BF0D00323A3540023424615
:101CD0002366A287E28744222364A763A3520232C9
:101CE000A3522365E3648023A2681B029A4232D088
:101CF0002368402219680A4202D119680A431A600F
:101D0000E022E168D20091424DD96268002A29D0D0
:101D10004246012A26D0E28F0227002A0DD12AE06E
:101D2000A26B11880232D960A263E28F013A92B2AB
:101D3000E287E38F002B1ED023689A681742EFD109
:101D4000FEF7B0FA801BA842F3D36B1CF1D003203E
:101D5000ABE70220AFE780222368D20119680A436B
:101D60001A60C6E73A880237DA60E28FA763013A61
:101D700092B2E287CFE7320029002000FFF7ECFEA5
:101D8000002801D020232366A368002B06D10193ED
:101D90002368DA6801929B680193019B206E431EC1
:101DA0009841C0B281E76268002A23D04246012AE6
:101DB00020D0E38F0227002B0FD1DCE7E28F012A2E
:101DC00024D9A26B11880232D960E38FA263023B4F
:101DD0009BB2E387E38F002BCDD023689A6817422C
:101DE000ECD1FEF75FFA801BA842F3D36B1CF1D055
:101DF00003205AE7E28F012A13D93A880237DA60C2
:101E0000E38FA763023B9BB2E387D2E7A26B127812
:101E10001A73A36B0133A363E38F013B9BB2E38788
:101E2000D8E73A781A73A36B0133A363E38F013BBE
:101E30009BB2E387BDE7C046F8B54746CE4680B5BE
:101E40001F005C239146C25C04008846089D012A5D
:101E500000D19EE00122C254FEF724FA5D23E35C28
:101E600006006268D9B2012B13D0822302205B00E6
:101E70009A4209D05D230122E2540022013BE25440
:101E8000C0BCB946B046F8BDA368002BF2D1042906
:101E9000F0D14346002B00D17DE04B46002B00D112
:101EA00079E0002F00D176E05D23E15C042901D0C8
:101EB0000521E154494600232164462123666752E7
:101EC000023967524146E3642365E023A163E16878
:101ED000E787A787DB0099425FD82368012F00D8E6
:101EE000BFE059688348014059601968490600D429
:101EF000C0E0002A0DD1E28F012A00D8EEE0424670
:101F00001288DA604346991CE38FA163023B9BB2BF
:101F1000E38701239946013346279846E38F002B38
:101F200003D1E35B002B00D18CE0414623689A6823
:101F3000114206D0E28F002A03D04A46012A00D17E
:101F4000AFE0012108009A681040114218D0E25B0E
:101F5000002A15D0E25B012A00D896E0D968226CED
:101F60008146118002322264E25B023A92B2E2536D
:101F7000E25B012A04D88022596852010A435A6060
:101F8000FEF790F9801BA842C8D36B1CC6D0032073
:101F900070E7022074E701206CE723685548596810
:101FA0000140596040211868014202D1186801437C
:101FB0001960002A52D142461288DA604346991CC1
:101FC000E38FA163013B9BB2E38701239946013371
:101FD00046279846E38F002B02D1E35B002B31D0DC
:101FE000414623689A68114210D0E28F002A0DD032
:101FF0004A46012A0AD1A26B11880232D960A26333
:10200000E28F013A92B2E287002291460121080054
:102010009A68104011420CD0E25B002A09D0814638
:10202000DA68236C1A8002332364E35B013B9BB2C2
:10203000E353FEF737F9801BA842CBD36B1CC9D002
:10204000032017E7320029002000FFF785FD002854
:1020500000D10FE72023012023660BE7012FB4D125
:10206000A9E7802158684901014359601968490668
:1020700000D540E74020196801431960002A00D1CB
:1020800039E7012F00D044E735E71B7B226C8146FE
:102090001370236C01332364E35B013B9BB2E35376
:1020A0006EE7E28F012A0BD9A26B11880232D96048
:1020B000A263E28F023A92B2E2870022914640E7A1
:1020C000A26B12781A730022A36B91460133A363AB
:1020D000E38F013B9BB2E387236832E742461278E5
:1020E0001A73A36B0133A363E38F013B9BB2E387B6
:1020F0000FE7C046FFEFFFFF10B584B00C220021B0
:1021000001A800F033FE04211C4C1D4B61618021AD
:102110004904A161C221012223600023FF31E16152
:102120009E39FF3920006360A360E360226123626F
:102130006354A262FEF78CF9002816D100230193A4
:1021400080235B0102930423200001A90393FEF77F
:10215000D9FA00280FD11123200001A90193FEF71D
:10216000D1FA002804D104B010BD00F019FAE5E757
:1021700000F016FAF7E700F013FAECE75000002041
:102180000024014010B5040088B01422002103A8E7
:1021900000F0ECFD124B22689A4201D008B010BD4D
:1021A0008020104B800099690143996180219A69D0
:1021B000890202400192019A5A6990200A435A61A9
:1021C0005B69C0050B400293029B0123039302331A
:1021D0000493002303A90593FEF7FEFCDEE7C04647
:1021E0000024014000100240F8B50F000600140062
:1021F000FEF7D6FB002F17D00D4B00259C466644FA
:1022000003E002350234BD420ED262782378120216
:102210001A4301200023A919FEF70EFC0028F0D074
:10222000FEF7D2FB002002E0FEF7CEFB0120F8BD56
:10223000003C0008044B054805491A78C254013394
:102240008B42FAD101207047003C000890C4FF1770
:102250000040000810B584B00400FEF7A1FB012384
:102260000393104B69460293002301A80193FEF7E4
:1022700047FC002807D1FEF7A7FB009B0020013395
:1022800005D004B010BDFEF79FFB0020F9E7201E2B
:10229000F7D18022FF210448D20000F067FD012021
:1022A000EFE7C046003C0008900000208023411862
:1022B00030B5DB00994219D881420CD90C4D0D4B39
:1022C000C318002A09D01C78147001321B782B54D3
:1022D00001308142F3D8012030BD1B78441C2B54BF
:1022E000A142F8D9044BC3182000EFE70020F3E720
:1022F00090000020003C0008013C0008802310B53D
:102300004418DB009C4204D8002A02D0FFF76CFF7F
:1023100000E0002010BDC046F0B5C64600B588B04C
:102320001422002103A800F021FD80202D4BC003C2
:102330005969C027014359615A699025024080209C
:102340000092009A5969800201435961802100245A
:1023500003265A69C90202400192019A5A69ED05A1
:102360000A435A615B69FF000B400293029B1E4BBC
:102370000022180002219846FEF718FD00223900BD
:102380002800FEF713FD03A9184803960496059448
:10239000FEF722FC0E23280003A90393049605945C
:1023A000FEF71AFC10230393114B280003A9049392
:1023B0000594FEF711FC02234046023E03A9039355
:1023C000049605940694FEF707FC280003A90397DA
:1023D000049605940694FEF7FFFB08B080BCB8464F
:1023E000F0BDC04600100240000400480014004840
:1023F0000000211010B594B02C22002109A800F093
:10240000B5FC10220021684600F0B0FC102200212B
:1024100004A800F0ABFC1A231024089308A8193B69
:102420000B930D930C940E940F93FEF7D5FC07239A
:102430000024002100936846993302930194039489
:10244000FEF75CFF80235B020493802304A89B00BB
:102450000593FEF7DFFF14B010BDC046F8B5FDF7D9
:1024600005FFFFF7C7FFFFF757FFFFF745FE00F037
:10247000A7FB00F027FB04213E4A3F4F13680B43A4
:102480001360FFF7D7FE3D4C2000FEF7BBF920009C
:10249000FEF788F864212000FEF7D0F82000FEF750
:1024A0002DF9374E30802000FEF77CF864212000A3
:1024B000FEF7C4F8334B20001B885F43FEF71EF97C
:1024C00001003800FDF720FE2F4D28802000FEF788
:1024D00095F82E4C012122000020FFF7E7FE642131
:1024E0002888FDF711FE3388C0B26070C82B02D86F
:1024F0002378834239D90020FFF7ACFE0121621C0A
:102500000020FFF7FBFE012202212148FEF74EFCCE
:1025100000F08EF90028FBD000F066FA022000F0EF
:102520003BFA4C2000F07EF9F0211A4800F0DAF96D
:1025300001221100100000F0BFF9174C174B2200C8
:1025400083CB83C233885BBAA3812B8805255BBA12
:10255000E3812021200000F089F9FA20013D80006C
:10256000EDB2FDF7A5FE002DF3D1FEF725FCFEF739
:1025700023FCFAE700700040E40C0000500000204B
:10258000B6040020BAF7FF1FB40400209004002016
:1025900000040048A1F0F0F094040020ACF7FF1F05
:1025A0007047C046F0B5C6460E2300B584B06B44F4
:1025B00098461F2342460340802590241370002331
:1025C0006A46ED00E40529002000D373FA270022B3
:1025D000FEF7ECFB0F220E4EBF0041466A4401237A
:1025E00030000097FFF728FC0F2201236A44FF21E7
:1025F00030000097FFF720FC200001222900FEF7A1
:10260000D5FB6B46D87B04B080BCB846F0BDC04655
:10261000E4040020F0B5CE46474680B585B01400EE
:1026200000236A4693730F336B4498461F23802719
:1026300003409026202042460343FF00F6050D008C
:102640003000390013700022FEF7B0FB0E4B0E2253
:1026500099466423414600936A444846633BFFF72A
:10266000EBFB64232900A2B24846FFF707FB3000CA
:1026700001223900FEF79AFB6B46987B05B0C0BC7F
:10268000B946B046F0BDC046E4040020F0B5C646E9
:1026900000B586B06A460023937517336B4498469D
:1026A0001F230F2703408025202090244246034308
:1026B0006F44ED00E40520003970137029000022FA
:1026C000FEF774FB642316220C4E414600936A44C5
:1026D0003000633BFFF7B0FBFA2339009B00012277
:1026E0003000FFF7CBFA200001222900FEF75EFB45
:1026F0006B46987D06B080BCB846F0BDE40400206F
:10270000F0B5C64600B584B00023070068464373A1
:102710000E336B441A7098462C4B1B781C1C8B4252
:1027200000D90C1C2A4AE4B21278002A23D0802156
:1027300090200022C900C005FEF738FB64230D225B
:10274000244D414600936A44633B2800FFF774FB25
:10275000642339002800A2B2FFF790FA802190206C
:102760000122C900C005FEF721FB6B46587B04B06F
:1027700080BCB846F0BD802190201B1BC900C0055D
:10278000DDB2FEF713FB64230D22124E4146009387
:102790006A44633B3000FFF74FFBA2B26423390069
:1027A00030006C1EFFF76AFAE4B2002DD6D00F2578
:1027B00000276D44013C6423012229003000E4B26B
:1027C0002F70FFF75BFAFF2CF4D1C7E7BB040020A2
:1027D000B9040020E404002070B50F2686B08025DF
:1027E000902400236A466E44ED00E4052900307011
:1027F000D37520000022FEF7D9FAFA2317229B0096
:10280000310000936A4401230548FFF715FB2000BF
:1028100001222900FEF7CAFA6B46D87D06B070BDCA
:10282000E404002010B501000520FFF72FFF10BDC4
:1028300010B50320FFF7B6FE0138C3B20222002014
:102840009A424041C0B210BD10B50020FFF7AAFE69
:10285000830700D510BD02210143C9B20020FFF754
:1028600015FF0520FDF724FDF4E7C04610B5B022A2
:10287000FFF746FF8021902001228900C005FEF766
:1028800095FA3024FF20FFF7A7FF0442FAD08021F9
:10289000902000228900C005FEF788FA70210720E9
:1028A000FFF7F4FE0123C20601D4180010BDE12099
:1028B000FFF792FF0023F8E770B504000020160030
:1028C0000D00FFF76FFE70230100B6016401344371
:1028D0002D012C4399432143C9B20020FFF7D6FEB6
:1028E00070BDC04610B50A4C82B0009001912278AC
:1028F00069460A20FFF78EFE694622781020FFF70E
:1029000089FE044B11201978FFF7C0FE02B010BDFC
:10291000B8040020BB040020F0B5C646072300B56C
:1029200082B06B4498468025902450234246FA2773
:10293000ED00E4052900200013700022FEF736FAAE
:102940000B4EBF003B00414601223000FFF796F9D5
:102950003B00012273213000FFF790F9012229008A
:102960002000FEF723FA02B080BCB846F0BDC04696
:10297000E404002010B504000620FFF713FEF82140
:102980000840F139032C02D864000134E1B201435C
:102990000620FFF77BFE10BD70B505000620FFF78F
:1029A00001FED7240440022D16D0012D0ED0552251
:1029B0000C4B1A7021000620FFF768FE0620FFF777
:1029C000F1FD201A44426041C0B270BD082341228B
:1029D0001C43044B1A70EDE720239B221C43014B40
:1029E0001A70E7E7C1040020202100239020304A1C
:1029F00070B511702F4A1B3911702F4A2F4C304E71
:102A0000FC311370FF310022C00523703370FEF7D4
:102A1000CDF9802190200122C900C005FEF7C6F93A
:102A20000520FDF745FC0C210020FFF72FFE5F215C
:102A30000420FFF72BFE0320FFF79CFF0220FFF787
:102A4000ABFF002801D0012323700620FFF7AAFD69
:102A5000002405000020FFF79FFFFFF75DFF002126
:102A60001D20FFF713FE00211C20FFF70FFE702131
:102A700007203470FFF70AFE4C210520FFF706FE01
:102A8000E220FFF7A9FEE120FFF7A6FEFFF7DCFE3C
:102A90000020FFF787FDFE2101400020FFF7F6FD33
:102AA000FD23013DEDB2AB426441E0B270BDC046D2
:102AB000BB040020B8040020BC040020BA0400209D
:102AC000B904002070B5002690B01422002101A89E
:102AD00006AC00F04BF9282200212000009600F0FF
:102AE00045F9264D264B28002B607F23AB608033B1
:102AF0006E60EB602E616E61AE61FEF74FFE0028E6
:102B000030D100236A4669469380002228008A71EA
:102B1000012201A904930593FEF792FE00282AD111
:102B2000184B0122694628000093FEF721FF002878
:102B30001ED1154900238022616101215200A3703A
:102B40006360E3602361A361E36120332280E15489
:102B5000626221002800FF3AFEF7F2FC002804D14F
:102B600010B070BDFFF71CFDCBE7FFF719FDF7E7CD
:102B7000FFF716FDDDE7FFF713FDD1E7C4040020E2
:102B80000028004001010100000080800A4B02681B
:102B900010B59A4200D010BD8023084A1B02116A6A
:102BA00002200B43136200210022FDF781FE022068
:102BB000FDF7B0FEEFE7C0460028004000100240DD
:102BC000E0221048104B10B503608223D200C2608F
:102BD00080225B004360002392008261FA3AFF3A50
:102BE000836003614361C361036243628362C262C3
:102BF00003634363FEF7D2FF002800D110BDFFF747
:102C0000CFFCFBE7E40400200030014010B50400D5
:102C100088B01422002103A800F0A8F8134B226802
:102C20009A4201D008B010BD8020114B4001996933
:102C30000143996180219A69890202400192019AB7
:102C40005A6990200A435A615B6903220B40029340
:102C5000029BE0230393DE3B0493002303A9C005FA
:102C6000059306920793FDF7B7FFDBE700300140BD
:102C70000010024001220A4B82B099691143996108
:102C800099690A4080210092009ADA6949050A434D
:102C9000DA61DB690B400193019B02B07047C046CB
:102CA000001002407047C046FEE7C0467047C0466D
:102CB0007047C04610B5FDF7E9FA10BD10B50248DF
:102CC000FEF714FD10BDC046C40400207047C04686
:102CD0000D4885460D480E490E4A002302E0D4589F
:102CE000C4500433C4188C42F9D30B4A0B4C002354
:102CF00001E013600432A242FBD3FFF7E7FF00F0CC
:102D000011F8FFF7ABFBFEE70010002000000020E9
:102D10000C000020D42D00081000002048050020E1
:102D2000FEE7000070B500260C4D0D4C641BA4108E
:102D3000A64209D1002600F021F80A4D0A4C641B76
:102D4000A410A64205D170BDB300EB5898470136D8
:102D5000EEE7B300EB5898470136F2E7CC2D0008B8
:102D6000CC2D0008CC2D0008D02D000803008218BF
:102D7000934200D1704719700133F9E7F8B5C046A6
:102D8000F8BC08BC9E467047F8B5C046F8BC08BC05
:042D90009E467047A4
:102D940002030405060708090A0B0C0D0E0F101098
:102DA400000000000102030405060708090A0B0CD1
:102DB4000D0E0F10000000000000000000000000D5
:082DC4000102030406070809DF
:042DCC00E900000812
:042DD000C100000836
:0C2DD400010000000400000000127A0062
:0400000508002CD1F2
:00000001FF
